:020000040800F2
:1000000000280020590E0008FD0D0008030E00080E
:10001000090E00080F0E0008150E00080000000071
:100020000000000000000000000000001B0E00089F
:10003000270E000800000000330E00083F0E0008E5
:10004000A10E0008A10E0008A10E0008A10E0008D4
:10005000A10E0008A10E0008A10E0008A10E0008C4
:10006000A10E0008A10E0008A10E0008A10E0008B4
:10007000A10E0008A10E0008A10E0008A10E0008A4
:10008000A10E0008A10E0008A10E0008A10E000894
:10009000A10E0008A10E0008A10E0008A10E000884
:1000A000A10E0008A10E0008A10E0008A10E000874
:1000B000A10E0008A10E000800000000A10E00081B
:1000C000A10E00080000000000000000A10E0008C2
:1000D00000000000A10E0008A10E000800000000B2
:1000E000A10E0008A10E0008A10E000800000000EB
:1000F0000000000000000000000000000000000000
:0C01000000000000000000005FF808F1A3
:10010C0010B5054C237833B9044B13B10448AFF345
:10011C0000800123237010BD0C00002000000000A3
:10012C00AC1C000808B5034B1BB103490348AFF3E3
:10013C00008008BD0000000010000020AC1C00086E
:10014C0080B582B000AF78607B68002B23D1002291
:10015C000121C24801F084F900220221BF4801F0BC
:10016C007FF900220421BD4801F07AF90022082110
:10017C00BA4801F075F900221021B84801F070F965
:10018C0000222021B54801F06BF901224021B3482F
:10019C0001F066F95DE17B68012B23D1012201217D
:1001AC00AE4801F05DF900220221AC4801F058F98B
:1001BC0000220421A94801F053F901220821A74883
:1001CC0001F04EF901221021A44801F049F9012255
:1001DC002021A24801F044F9012240219F4801F05E
:1001EC003FF936E17B68022B23D1002201219B4889
:1001FC0001F036F900220221984801F031F9012270
:10020C000421964801F02CF900220821934801F0B2
:10021C0027F900221021914801F022F90122202116
:10022C008E4801F01DF9002240218C4801F018F98C
:10023C000FE17B68032B23D100220121874801F0B9
:10024C000FF900220221854801F00AF9002204214D
:10025C00824801F005F900220821804801F000F9DC
:10026C00012210217D4801F0FBF8012220217B485E
:10027C0001F0F6F800224021784801F0F1F8E8E0AE
:10028C007B68042B23D101220121744801F0E8F88A
:10029C0000220221714801F0E3F8002204216F488A
:1002AC0001F0DEF8012208216C4801F0D9F8012296
:1002BC0010216A4801F0D4F800222021674801F08F
:1002CC00CFF800224021654801F0CAF8C1E07B68F4
:1002DC00052B23D100220121604801F0C1F8012235
:1002EC0002215E4801F0BCF8002204215B4801F0B9
:1002FC00B7F800220821594801F0B2F80122102168
:10030C00564801F0ADF800222021544801F0A8F81D
:10031C0000224021514801F0A3F89AE07B68062B9B
:10032C0023D1002201214D4801F09AF8012202212B
:10033C004A4801F095F800220421484801F090F851
:10034C0000220821454801F08BF800221021434877
:10035C0001F086F800222021404801F081F80022AB
:10036C0040213E4801F07CF873E07B68072B23D1D9
:10037C0000220121394801F073F80022022137488C
:10038C0001F06EF800220421344801F069F80122D2
:10039C000821324801F064F8012210212F4801F0A5
:1003AC005FF8012220212D4801F05AF8012240214A
:1003BC002A4801F055F84CE07B68082B23D1002229
:1003CC000121264801F04CF800220221234801F0BB
:1003DC0047F800220421214801F042F800220821AC
:1003EC001E4801F03DF8002210211C4801F038F89D
:1003FC0000222021194801F033F80022402117482F
:10040C0001F02EF825E07B68092B22D10022012176
:10041C00124801F025F800220221104801F020F8C2
:10042C00002204210D4801F01BF8002208210B4882
:10043C0001F016F801221021084801F011F80022F1
:10044C002021064801F00CF800224021034801F05D
:10045C0007F800BF0837BD4680BD00BF000C014047
:10046C0080B582B000AF78607B68002B29D1002268
:10047C008021C84800F0F4FF00224FF48071C54879
:10048C0000F0EEFF00224FF40071C24800F0E8FFCC
:10049C0000224FF48061BF4800F0E2FF00224FF4CD
:1004AC000061BC4800F0DCFF00224FF48051B948D9
:1004BC0000F0D6FF01224FF40051B64800F0D0FFF7
:1004CC0096E17B68012B29D101228021B14800F0F3
:1004DC00C7FF00224FF48071AE4800F0C1FF00222C
:1004EC004FF40071AB4800F0BBFF01224FF4806168
:1004FC00A84800F0B5FF01224FF40061A54800F0B8
:10050C00AFFF01224FF48051A24800F0A9FF012255
:10051C004FF400519F4800F0A3FF69E17B68022B68
:10052C0029D1002280219B4800F09AFF00224FF431
:10053C008071984800F094FF01224FF400719548A7
:10054C0000F08EFF00224FF48061924800F088FF8B
:10055C0000224FF400618F4800F082FF01224FF41B
:10056C0080518C4800F07CFF00224FF400518948E8
:10057C0000F076FF3CE17B68032B29D1002280211F
:10058C00844800F06DFF00224FF48071814800F028
:10059C0067FF00224FF400717E4800F061FF0022DB
:1005AC004FF480617B4800F05BFF01224FF4006147
:1005BC00784800F055FF01224FF48051754800F047
:1005CC004FFF00224FF40051724800F049FF0FE139
:1005DC007B68042B29D1012280216E4800F040FF5A
:1005EC0000224FF480716B4800F03AFF00224FF468
:1005FC000071684800F034FF01224FF480616548B7
:10060C0000F02EFF01224FF40061624800F028FF39
:10061C0000224FF480515F4800F022FF00224FF47B
:10062C0000515C4800F01CFFE2E07B68052B29D1EF
:10063C0000228021574800F013FF01224FF48071F3
:10064C00544800F00DFF00224FF40071514800F0A7
:10065C0007FF00224FF480614E4800F001FF012299
:10066C004FF400614B4800F0FBFE00224FF4805128
:10067C00484800F0F5FE00224FF40051454800F0C8
:10068C00EFFEB5E07B68062B29D100228021414882
:10069C0000F0E6FE01224FF480713E4800F0E0FECF
:1006AC0000224FF400713B4800F0DAFE00224FF4B8
:1006BC008061384800F0D4FE00224FF400613548C8
:1006CC0000F0CEFE00224FF48051324800F0C8FEFC
:1006DC0000224FF400512F4800F0C2FE88E07B68E6
:1006EC00072B29D1002280212A4800F0B9FE0022D4
:1006FC004FF48071274800F0B3FE00224FF40071D4
:10070C00244800F0ADFE01224FF48061214800F036
:10071C00A7FE01224FF400611E4800F0A1FE012249
:10072C004FF480511B4800F09BFE01224FF4005106
:10073C00184800F095FE5BE07B68082B2CD100225A
:10074C008021144800F08CFE00224FF48071114877
:10075C0000F086FE00224FF400710E4800F080FE7F
:10076C0000224FF480610B4800F07AFE00224FF417
:10077C000061084800F074FE00224FF480510548D7
:10078C0000F06EFE00224FF40051024800F068FEAB
:10079C002EE000BF000C01407B68092B28D1002201
:1007AC008021154800F05CFE00224FF48071124845
:1007BC0000F056FE00224FF400710F4800F050FE7E
:1007CC0000224FF480610C4800F04AFE01224FF4E5
:1007DC000061094800F044FE00224FF480510648A5
:1007EC0000F03EFE00224FF40051034800F038FEAA
:1007FC0000BF0837BD4680BD000C014080B582B0FB
:10080C0000AF00F049FB00F07FF900F0B9F94FF4AC
:10081C00967000F011FA0023FB71FB79BB71FB7928
:10082C00032B00F2548101A252F823F0490800086E
:10083C00EB0800088D0900082D0A00080022202171
:10084C00A74800F00DFE01224021A54800F008FE4B
:10085C0001228021A24800F003FE01224FF4807196
:10086C009F4800F0FDFD01224FF400719C4800F000
:10087C00F7FD00224FF48061994800F0F1FD994B8F
:10088C001A68994B83FB02135911D317CB1A6421A5
:10089C0001FB03F3D31A002B16D1924B1B68924A1F
:1008AC0082FB03125211DB17D31A02331846FFF7DF
:1008BC0047FC8C4B1B688C4A82FB03125211DB17D2
:1008CC00D31A1846FFF7CCFD884B1B68012B40F060
:1008DC00F7800123BB71C82000F0C2F9F0E00022C0
:1008EC0020217F4800F0BCFD012240217C4800F013
:1008FC00B7FD012280217A4800F0B2FD01224FF4AD
:10090C008071774800F0ACFD00224FF40071744800
:10091C0000F0A6FD01224FF48061714800F0A0FDAB
:10092C00734B1A68704B83FB02135911D317CB1AF4
:10093C00642101FB03F3D31A002B15D16C4B1B68FC
:10094C00694A82FB03125211DB17D31A1846FFF7C0
:10095C00F7FB674B1B68644A82FB03125211DB17CF
:10096C00D31A1846FFF77CFD624B1B68012B40F035
:10097C00A9800223BB714FF4967000F085F9A1E0B9
:10098C0001222021564800F06BFD012240215448E1
:10099C0000F066FD00228021514800F061FD00222C
:1009AC004FF480714E4800F05BFD01224FF4007152
:1009BC004B4800F055FD01224FF48061484800F08F
:1009CC004FFD4D4B1A68484B83FB02135911D3173B
:1009DC00CB1A642101FB03F3D31A002B16D1464B1F
:1009EC001B68414A82FB03125211DB17D31A1846BB
:1009FC00FFF7A6FB404B1B683B4A82FB03125211CC
:100A0C00DB17D31A02331846FFF72AFD3B4B1B6842
:100A1C00012B59D10323BB71C82000F049F953E0D5
:100A2C00012220212E4800F01BFD002240212C48E1
:100A3C0000F016FD01228021294800F011FD002252
:100A4C004FF48071264800F00BFD01224FF4007129
:100A5C00234800F005FD01224FF48061204800F08E
:100A6C00FFFC274B1A68204B83FB02135911D31739
:100A7C00CB1A642101FB03F3D31A002B15D1204BA5
:100A8C001B68194A82FB03125211DB17D31A184642
:100A9C00FFF756FB1A4B1B68134A82FB03125211C9
:100AAC00DB17D31A1846FFF7DBFC164B1B68012B20
:100ABC000CD10023BB7140F22D1000F0BDF805E005
:100ACC0000BF04E000BF02E000BF00E000BF00F088
:100ADC0003F9BB79FB710A2000F040FA9FE600BFD6
:100AEC0000080140280000201F85EB512C0000203D
:100AFC003000002034000020380000203C00002092
:100B0C00400000204400002080B590B000AF07F1F9
:100B1C00180328220021184601F0BAF83B1D0022C8
:100B2C001A605A609A60DA601A610223BB61012371
:100B3C00BB621023FB6200237B6307F1180318468A
:100B4C0000F0A6FC0346002B01D000F06FF80F2339
:100B5C007B600023BB600023FB6000233B61002310
:100B6C007B613B1D0021184600F012FF0346002B51
:100B7C0001D000F05BF800BF4037BD4680BD0000DF
:100B8C0080B586B000AF07F1080300221A605A60E6
:100B9C009A60DA60224B9B69214A43F0040393610B
:100BAC001F4B9B6903F004037B607B681C4B9B69A8
:100BBC001B4A43F008039361194B9B6903F008032C
:100BCC003B603B6800224FF4FC61164800F048FC87
:100BDC00002243F6FF71144800F042FC4FF4FC6312
:100BEC00BB600123FB6000233B6102237B6107F1A7
:100BFC00080319460B4800F0B9FA43F6FF73BB60C3
:100C0C000123FB6000233B6102237B6107F1080396
:100C1C001946054800F0AAFA00BF1837BD4680BD3A
:100C2C000010024000080140000C014080B400AFED
:100C3C0072B600BFFEE7000080B483B000AF7860EE
:100C4C00054A7B681360054B00221A6000BF0C3705
:100C5C00BD4680BC704700BF280000202C0000203F
:100C6C0080B483B000AF7860054A7B681360054B95
:100C7C0000221A6000BF0C37BD4680BC704700BF15
:100C8C00300000203400002080B483B000AF7860C6
:100C9C00054A7B681360054B00221A6000BF0C37B5
:100CAC00BD4680BC704700BF380000203C000020CF
:100CBC0080B483B000AF7860054A7B681360054B45
:100CCC0000221A6000BF0C37BD4680BC704700BFC5
:100CDC00400000204400002080B400AF234B1B6870
:100CEC00002B0CDD214B1B68013B204A13601F4B72
:100CFC001B68012B35DC1E4B01221A6031E01D4BA9
:100D0C001B68002B0CDD1B4B1B68013B194A136045
:100D1C00184B1B68012B24DC174B01221A6020E0B6
:100D2C00164B1B68002B0CDD144B1B68013B134A44
:100D3C001360124B1B68012B13DC114B01221A6040
:100D4C000FE0104B1B68002B0BDD0E4B1B68013B9F
:100D5C000C4A13600B4B1B68012B02DC0A4B012263
:100D6C001A6000BFBD4680BC704700BF2800002041
:100D7C002C0000203000002034000020380000201F
:100D8C003C000020400000204400002080B485B0CE
:100D9C0000AF154B9B69144A43F001039361124B4E
:100DAC009B6903F00103BB60BB680F4BDB690E4A08
:100DBC0043F08053D3610C4BDB6903F080537B60B1
:100DCC007B680A4B5B68FB60FB6823F0E063FB60AD
:100DDC00FB6843F08063FB60044AFB68536000BF10
:100DEC001437BD4680BC7047001002400000014023
:100DFC0080B400AFFEE780B400AFFEE780B400AF74
:100E0C00FEE780B400AFFEE780B400AFFEE780B42D
:100E1C0000AF00BFBD4680BC704780B400AF00BFC0
:100E2C00BD4680BC704780B400AF00BFBD4680BCDF
:100E3C00704780B500AF00F075F800BF80BD80B47E
:100E4C0000AF00BFBD4680BC70470000FFF7F7FF46
:100E5C000B480C490C4A002302E0D458C45004330C
:100E6C00C4188C42F9D3094A094C002301E01360E1
:100E7C000432A242FBD300F0E7FEFFF7BFFC704741
:100E8C00000000200C000020F01C00080C000020CA
:100E9C004C000020FEE7000080B500AF084B1B683B
:100EAC00074A43F010031360032000F02BF90F20C6
:100EBC0000F008F8FFF76AFF0023184680BD00BF5A
:100ECC000020024080B582B000AF7860124B1A68E7
:100EDC00124B1B7819464FF47A73B3FBF1F3B2FB48
:100EEC00F3F3184600F035F90346002B01D001232B
:100EFC000EE07B680F2B0AD8002279684FF0FF3088
:100F0C0000F00BF9064A7B681360002300E0012314
:100F1C0018460837BD4680BD0000002008000020A0
:100F2C000400002080B400AF054B1B781A46054B1B
:100F3C001B681344034A136000BFBD4680BC704756
:100F4C00080000204800002080B400AF024B1B6852
:100F5C001846BD4680BC70474800002080B584B060
:100F6C0000AF7860FFF7F0FFB8607B68FB60FB6850
:100F7C00B3F1FF3F05D00A4B1B781A46FB681344AC
:100F8C00FB6000BFFFF7E0FF0246BB68D31AFA68AC
:100F9C009A42F7D800BF00BF1037BD4680BD00BFD6
:100FAC000800002080B485B000AF78607B6803F047
:100FBC000703FB600C4BDB68BB60BA684FF6FF03A2
:100FCC001340BB60FB681A02BB68134343F0BF635A
:100FDC0043F40033BB60044ABB68D36000BF1437D2
:100FEC00BD4680BC704700BF00ED00E080B400AF90
:100FFC00044BDB681B0A03F007031846BD4680BC94
:10100C00704700BF00ED00E080B483B000AF034632
:10101C003960FB7197F90730002B0ADB3B68DAB2B9
:10102C000C4997F907301201D2B20B4483F8002314
:10103C000AE03B68DAB20849FB7903F00F03043B82
:10104C001201D2B20B441A7600BF0C37BD4680BCDD
:10105C00704700BF00E100E000ED00E080B489B013
:10106C0000AFF860B9607A60FB6803F00703FB61BE
:10107C00FB69C3F10703042B28BF0423BB61FB6985
:10108C000433062B02D9FB69033B00E000237B6190
:10109C004FF0FF32BB6902FA03F3DA43BB681A4024
:1010AC007B699A404FF0FF317B6901FA03F3D94316
:1010BC007B680B40134318462437BD4680BC7047F1
:1010CC0080B582B000AF78607B68013BB3F1807F64
:1010DC0001D301230FE00A4A7B68013B53600F21C7
:1010EC004FF0FF30FFF790FF054B00229A60044B46
:1010FC0007221A60002318460837BD4680BD00BF82
:10110C0010E000E080B582B000AF78607868FFF73F
:10111C0049FF00BF0837BD4680BD80B586B000AF23
:10112C000346B9607A60FB7300237B61FFF75EFFB7
:10113C0078617A68B9687869FFF790FF024697F989
:10114C000F3011461846FFF75FFF00BF1837BD463A
:10115C0080BD80B582B000AF78607868FFF7B0FFD3
:10116C00034618460837BD4680BD000080B48BB0DE
:10117C0000AF7860396000237B6200233B6248E15A
:10118C0001227B6A02FA03F3FB613B681B68FA6974
:10119C001340BB61BA69FB699A4240F037813B68E6
:1011AC005B68A34A93425ED0A14A934275D8A14A88
:1011BC00934258D09F4A93426FD89F4A934252D041
:1011CC009D4A934269D89D4A93424CD09B4A934284
:1011DC0063D89B4A934246D0994A93425DD8122BCE
:1011EC002AD8122B59D801A252F823F073120008F6
:1011FC004D1200085F120008A1120008A712000887
:10120C00A7120008A7120008A7120008A7120008CE
:10121C00A7120008A7120008A7120008A7120008BE
:10122C00A7120008A7120008A7120008A7120008AE
:10123C005512000869120008824A934213D02CE020
:10124C003B68DB683B6229E03B68DB6804333B624C
:10125C0024E03B68DB6808333B621FE03B68DB68DB
:10126C000C333B621AE03B689B68002B02D10423D1
:10127C003B6213E03B689B68012B05D108233B6262
:10128C007B68FA691A6109E008233B627B68FA699A
:10129C005A6103E000233B6200E000BFBB69FF2BF7
:1012AC0001D87B6801E07B6804337B61BB69FF2B51
:1012BC0002D87B6A9B0002E07B6A083B9B003B6187
:1012CC007B691A680F213B6901FA03F3DB431A406F
:1012DC00396A3B6901FA03F31A437B691A603B686C
:1012EC005B6803F08053002B00F09080564B9B6999
:1012FC00554A43F001039361534B9B6903F001037F
:10130C00BB60BB68514A7B6A9B08023352F823309E
:10131C00FB607B6A03F003039B000F2202FA03F3CA
:10132C00DB43FA681340FB607B68494A93420DD05B
:10133C007B68484A934207D07B68474A934201D165
:10134C00022304E0032302E0012300E000237A6A75
:10135C0002F0030292009340FA681343FB603B498E
:10136C007B6A9B080233FA6841F823203B685B6870
:10137C0003F48013002B06D0384B9A683749BB69AD
:10138C0013438B6006E0354B9A68BB69DB433349EA
:10139C0013408B603B685B6803F40013002B06D092
:1013AC002E4BDA682D49BB691343CB6006E02B4BFF
:1013BC00DA68BB69DB4329491340CB603B685B6847
:1013CC0003F40033002B06D0244B5A682349BB6925
:1013DC0013434B6006E0214B5A68BB69DB431F4942
:1013EC0013404B603B685B6803F48033002B06D0E2
:1013FC001A4B1A681949BB6913430B6006E0174B6B
:10140C001A68BB69DB43154913400B607B6A0133D7
:10141C007B623B681A687B6A22FA03F3002B7FF429
:10142C00AFAE00BF00BF2C37BD4680BC704700BFBD
:10143C0000003210000031100000221000002110BA
:10144C0000001210000011100010024000000140BA
:10145C0000080140000C0140001001400004014054
:10146C0080B483B000AF78600B467B8013467B70F2
:10147C007B78002B03D07A887B681A6103E07B8829
:10148C001A047B681A6100BF0C37BD4680BC7047DC
:10149C0080B586B000AF78607B68002B01D101234A
:1014AC006CE27B681B6803F00103002B00F0878063
:1014BC00924B5B6803F00C03042B0CD08F4B5B68D6
:1014CC0003F00C03082B12D18C4B5B6803F48033B4
:1014DC00B3F5803F0BD1894B1B6803F40033002B11
:1014EC006CD07B685B68002B68D1012346E27B687B
:1014FC005B68B3F5803F06D1804B1B687F4A43F491
:10150C00803313602EE07B685B68002B0CD17B4B27
:10151C001B687A4A23F480331360784B1B68774A34
:10152C0023F4802313601DE07B685B68B3F5A02F68
:10153C000CD1724B1B68714A43F4802313606F4BC0
:10154C001B686E4A43F4803313600BE06B4B1B68D3
:10155C006A4A23F480331360684B1B68674A23F490
:10156C00802313607B685B68002B13D0FFF7ECFCC7
:10157C00386108E0FFF7E8FC02463B69D31A642B9C
:10158C0001D90323FAE15D4B1B6803F40033002BF4
:10159C00F0D014E0FFF7D8FC386108E0FFF7D4FC7A
:1015AC0002463B69D31A642B01D90323E6E1534B62
:1015BC001B6803F40033002BF0D100E000BF7B6804
:1015CC001B6803F00203002B63D04C4B5B6803F0E9
:1015DC000C03002B0BD0494B5B6803F00C03082B5E
:1015EC001CD1464B5B6803F48033002B16D1434B64
:1015FC001B6803F00203002B05D07B681B69012BD1
:10160C0001D00123BAE13D4B1B6823F0F8027B6843
:10161C005B69DB00394913430B603AE07B681B695B
:10162C00002B20D0364B01221A60FFF78DFC38615D
:10163C0008E0FFF789FC02463B69D31A022B01D95B
:10164C0003239BE12D4B1B6803F00203002BF0D00E
:10165C002A4B1B6823F0F8027B685B69DB00274987
:10166C0013430B6015E0264B00221A60FFF76CFC4D
:10167C00386108E0FFF768FC02463B69D31A022B7D
:10168C0001D903237AE11D4B1B6803F00203002BE5
:10169C00F0D17B681B6803F00803002B3AD07B6801
:1016AC009B69002B19D0174B01221A60FFF74CFCD9
:1016BC00386108E0FFF748FC02463B69D31A022B5D
:1016CC0001D903235AE10D4B5B6A03F00203002B93
:1016DC00F0D0012000F09AFA1CE00A4B00221A60AC
:1016EC00FFF732FC38610FE0FFF72EFC02463B6936
:1016FC00D31A022B08D9032340E100BF001002408B
:10170C0000004242800442429E4B5B6A03F002039B
:10171C00002BE9D17B681B6803F00403002B00F05D
:10172C00A6800023FB75974BDB6903F08053002BDD
:10173C000DD1944BDB69934A43F08053D361914BA9
:10174C00DB6903F08053BB60BB680123FB758E4BD8
:10175C001B6803F48073002B18D18B4B1B688A4ACF
:10176C0043F480731360FFF7EFFB386108E0FFF779
:10177C00EBFB02463B69D31A642B01D90323FDE032
:10178C00814B1B6803F48073002BF0D07B68DB6803
:10179C00012B06D17B4B1B6A7A4A43F0010313627F
:1017AC002DE07B68DB68002B0CD1764B1B6A754AED
:1017BC0023F001031362734B1B6A724A23F0040378
:1017CC0013621CE07B68DB68052B0CD16D4B1B6A2C
:1017DC006C4A43F0040313626A4B1B6A694A43F078
:1017EC00010313620BE0674B1B6A664A23F001038B
:1017FC001362644B1B6A634A23F0040313627B6815
:10180C00DB68002B15D0FFF79FFB38610AE0FFF770
:10181C009BFB02463B69D31A41F28832934201D9B1
:10182C000323ABE0574B1B6A03F00203002BEED0F3
:10183C0014E0FFF789FB38610AE0FFF785FB0246ED
:10184C003B69D31A41F28832934201D9032395E0C4
:10185C004C4B1B6A03F00203002BEED1FB7D012BDA
:10186C0005D1484BDB69474A23F08053D3617B6831
:10187C00DB69002B00F08180424B5B6803F00C03AA
:10188C00082B61D07B68DB69022B46D13F4B0022D1
:10189C001A60FFF759FB386108E0FFF755FB024669
:1018AC003B69D31A022B01D9032367E0354B1B6824
:1018BC0003F00073002BF0D17B681B6AB3F5803FFB
:1018CC0008D1304B5B6823F400327B689B682D4950
:1018DC0013434B602B4B5B6823F474127B68196ABF
:1018EC007B685B6A0B43274913434B60274B0122F0
:1018FC001A60FFF729FB386108E0FFF725FB024669
:10190C003B69D31A022B01D9032337E01D4B1B680B
:10191C0003F00073002BF0D02FE01C4B00221A6058
:10192C00FFF712FB386108E0FFF70EFB02463B693C
:10193C00D31A022B01D9032320E0124B1B6803F0AE
:10194C000073002BF0D118E07B68DB69012B01D10F
:10195C00012313E00B4B5B68FB60FB6803F48032E4
:10196C007B681B6A9A4206D1FB6803F470127B6891
:10197C005B6A9A4201D0012300E000231846183715
:10198C00BD4680BD00100240007000406000424225
:10199C0080B584B000AF786039607B68002B01D1D2
:1019AC000123D0E06A4B1B6803F007033A689A42A4
:1019BC0010D9674B1B6823F0070265493B6813433A
:1019CC000B60634B1B6803F007033A689A4201D023
:1019DC000123B8E07B681B6803F00203002B20D0C6
:1019EC007B681B6803F00403002B05D0594B5B6824
:1019FC00584A43F4E06353607B681B6803F00803A8
:101A0C00002B05D0534B5B68524A43F46053536030
:101A1C00504B5B6823F0F0027B689B684D49134385
:101A2C004B607B681B6803F00103002B40D07B6884
:101A3C005B68012B07D1474B1B6803F40033002B69
:101A4C0015D101237FE07B685B68022B07D1414BEA
:101A5C001B6803F00073002B09D1012373E03D4B8D
:101A6C001B6803F00203002B01D101236BE0394BFF
:101A7C005B6823F003027B685B68364913434B6059
:101A8C00FFF762FAF8600AE0FFF75EFA0246FB68BD
:101A9C00D31A41F28832934201D9032353E02D4BE0
:101AAC005B6803F00C027B685B689B009A42EBD18D
:101ABC00274B1B6803F007033A689A4210D2244B59
:101ACC001B6823F0070222493B6813430B60204B31
:101ADC001B6803F007033A689A4201D0012332E0F5
:101AEC007B681B6803F00403002B08D0194B5B6860
:101AFC0023F4E0627B68DB68164913434B607B6818
:101B0C001B6803F00803002B09D0124B5B6823F40D
:101B1C0060527B681B69DB000E4913434B6000F07D
:101B2C0021F802460B4B5B681B0903F00F030A49B3
:101B3C00CB5C22FA03F3094A1360094B1B68184665
:101B4C00FFF7C0F9002318461037BD4680BD00BF13
:101B5C000020024000100240C41C000800000020BD
:101B6C000400002080B487B000AF0023FB6000238A
:101B7C00BB6000237B6100237B6000233B611E4B19
:101B8C005B68FB60FB6803F00C03042B02D0082B92
:101B9C0003D027E0194B3B6127E0FB689B0C03F05B
:101BAC000F03174AD35C7B60FB6803F48033002B74
:101BBC0010D0114B5B685B0C03F00103114AD35C32
:101BCC00BB607B680D4A02FB03F2BB68B2FBF3F30C
:101BDC007B6104E07B680C4A02FB03F37B617B694D
:101BEC003B6102E0054B3B6100BF3B6918461C376B
:101BFC00BD4680BC704700BF0010024000127A0046
:101C0C00D41C0008E41C000800093D0080B485B019
:101C1C0000AF78600A4B1B680A4AA2FB03235B0ADD
:101C2C007A6802FB03F3FB6000BFFB685A1EFA6084
:101C3C00002BF9D100BF00BF1437BD4680BC7047E4
:101C4C0000000020D34D621070B500260C4D0D4CD9
:101C5C00641BA410A64209D100F022F800260A4DFC
:101C6C000A4C641BA410A64205D170BD55F8043B68
:101C7C0098470136EEE755F8043B98470136F2E7F2
:101C8C00E81C0008E81C0008E81C0008EC1C000814
:101C9C0003460244934200D1704703F8011BF9E755
:101CAC00F8B500BFF8BC08BC9E467047F8B500BF3D
:081CBC00F8BC08BC9E4670470D
:101CC40000000000000000000102030406070809E8
:101CD40002030405060708090A0B0C0D0E0F101069
:041CE40001020000F9
:041CE80031010008BE
:041CEC000D010008DE
:0C1CF0000024F4001000000001000000BF
:0400000508000E5988
:00000001FF
